{
  "contractName": "EvidenceChain",
  "abi": [
    {
      "inputs": [],
      "name": "cid",
      "outputs": [
        {
          "internalType": "string",
          "name": "",
          "type": "string"
        }
      ],
      "stateMutability": "view",
      "type": "function",
      "constant": true
    },
    {
      "inputs": [
        {
          "internalType": "string",
          "name": "_cid",
          "type": "string"
        }
      ],
      "name": "uploadEvidence",
      "outputs": [],
      "stateMutability": "nonpayable",
      "type": "function"
    },
    {
      "inputs": [],
      "name": "getEvidence",
      "outputs": [
        {
          "internalType": "string",
          "name": "",
          "type": "string"
        }
      ],
      "stateMutability": "view",
      "type": "function",
      "constant": true
    }
  ],
  "bytecode": "0x608060405234801561001057600080fd5b506103cc806100206000396000f3fe608060405234801561001057600080fd5b50600436106100415760003560e01c8063596f21f8146100465780638d23131d14610064578063aa3ec0a914610079575b600080fd5b61004e610081565b60405161005b91906102f2565b60405180910390f35b610077610072366004610251565b610113565b005b61004e61012a565b60606000805461009090610345565b80601f01602080910402602001604051908101604052809291908181526020018280546100bc90610345565b80156101095780601f106100de57610100808354040283529160200191610109565b820191906000526020600020905b8154815290600101906020018083116100ec57829003601f168201915b5050505050905090565b80516101269060009060208401906101b8565b5050565b6000805461013790610345565b80601f016020809104026020016040519081016040528092919081815260200182805461016390610345565b80156101b05780601f10610185576101008083540402835291602001916101b0565b820191906000526020600020905b81548152906001019060200180831161019357829003601f168201915b505050505081565b8280546101c490610345565b90600052602060002090601f0160209004810192826101e6576000855561022c565b82601f106101ff57805160ff191683800117855561022c565b8280016001018555821561022c579182015b8281111561022c578251825591602001919060010190610211565b5061023892915061023c565b5090565b5b80821115610238576000815560010161023d565b60006020808385031215610263578182fd5b823567ffffffffffffffff8082111561027a578384fd5b818501915085601f83011261028d578384fd5b81358181111561029f5761029f610380565b604051601f8201601f19168101850183811182821017156102c2576102c2610380565b60405281815283820185018810156102d8578586fd5b818585018683013790810190930193909352509392505050565b6000602080835283518082850152825b8181101561031e57858101830151858201604001528201610302565b8181111561032f5783604083870101525b50601f01601f1916929092016040019392505050565b60028104600182168061035957607f821691505b6020821081141561037a57634e487b7160e01b600052602260045260246000fd5b50919050565b634e487b7160e01b600052604160045260246000fdfea2646970667358221220f5e8b939ec31e1df05b5d8a13c70677e88e08c0d819ad8a2ecf8ee5f6cfe2e6464736f6c63430008000033",
  "immutableReferences": {},
  "source": "// SPDX-License-Identifier: MIT\r\npragma solidity ^0.8.0;\r\n\r\ncontract EvidenceChain {\r\n    string public cid;\r\n\r\n    function uploadEvidence(string memory _cid) public {\r\n        cid = _cid;\r\n    }\r\n\r\n    function getEvidence() public view returns (string memory) {\r\n        return cid;\r\n    }\r\n}\r\n",
  "sourcePath": "C:\\Users\\HP\\Desktop\\forensic-evidence-protection\\contracts\\evi.sol",
  "compiler": {
    "name": "solc",
    "version": "0.8.0+commit.c7dfd78e.Emscripten.clang"
  },
  "schemaVersion": "3.4.16",
  "updatedAt": "2024-09-29T14:24:25.699Z",
  "networkType": "ethereum",
  "devdoc": {
    "kind": "dev",
    "methods": {},
    "version": 1
  },
  "userdoc": {
    "kind": "user",
    "methods": {},
    "version": 1
  }
}